{
  "contractName": "HashStorage",
  "abi": [
    {
      "inputs": [
        {
          "internalType": "uint256",
          "name": "id",
          "type": "uint256"
        },
        {
          "internalType": "string",
          "name": "hash",
          "type": "string"
        }
      ],
      "name": "insertHash",
      "outputs": [],
      "stateMutability": "nonpayable",
      "type": "function"
    },
    {
      "inputs": [
        {
          "internalType": "uint256",
          "name": "id",
          "type": "uint256"
        }
      ],
      "name": "getHash",
      "outputs": [
        {
          "internalType": "string",
          "name": "",
          "type": "string"
        }
      ],
      "stateMutability": "view",
      "type": "function",
      "constant": true
    }
  ],
  "bytecode": "0x608060405234801561001057600080fd5b5061072f806100206000396000f3fe608060405234801561001057600080fd5b50600436106100365760003560e01c80636b2fafa91461003b578063bf174f691461006b575b600080fd5b610055600480360381019061005091906101ab565b610087565b6040516100629190610268565b60405180910390f35b610085600480360381019061008091906103bf565b610134565b005b6060600080600084815260200190815260200160002090508060000180546100ae9061044a565b80601f01602080910402602001604051908101604052809291908181526020018280546100da9061044a565b80156101275780601f106100fc57610100808354040283529160200191610127565b820191906000526020600020905b81548152906001019060200180831161010a57829003601f168201915b5050505050915050919050565b600080600084815260200190815260200160002090508181600001908161015b9190610627565b50505050565b6000604051905090565b600080fd5b600080fd5b6000819050919050565b61018881610175565b811461019357600080fd5b50565b6000813590506101a58161017f565b92915050565b6000602082840312156101c1576101c061016b565b5b60006101cf84828501610196565b91505092915050565b600081519050919050565b600082825260208201905092915050565b60005b838110156102125780820151818401526020810190506101f7565b60008484015250505050565b6000601f19601f8301169050919050565b600061023a826101d8565b61024481856101e3565b93506102548185602086016101f4565b61025d8161021e565b840191505092915050565b60006020820190508181036000830152610282818461022f565b905092915050565b600080fd5b600080fd5b7f4e487b7100000000000000000000000000000000000000000000000000000000600052604160045260246000fd5b6102cc8261021e565b810181811067ffffffffffffffff821117156102eb576102ea610294565b5b80604052505050565b60006102fe610161565b905061030a82826102c3565b919050565b600067ffffffffffffffff82111561032a57610329610294565b5b6103338261021e565b9050602081019050919050565b82818337600083830152505050565b600061036261035d8461030f565b6102f4565b90508281526020810184848401111561037e5761037d61028f565b5b610389848285610340565b509392505050565b600082601f8301126103a6576103a561028a565b5b81356103b684826020860161034f565b91505092915050565b600080604083850312156103d6576103d561016b565b5b60006103e485828601610196565b925050602083013567ffffffffffffffff81111561040557610404610170565b5b61041185828601610391565b9150509250929050565b7f4e487b7100000000000000000000000000000000000000000000000000000000600052602260045260246000fd5b6000600282049050600182168061046257607f821691505b6020821081036104755761047461041b565b5b50919050565b60008190508160005260206000209050919050565b60006020601f8301049050919050565b600082821b905092915050565b6000600883026104dd7fffffffffffffffffffffffffffffffffffffffffffffffffffffffffffffffff826104a0565b6104e786836104a0565b95508019841693508086168417925050509392505050565b6000819050919050565b600061052461051f61051a84610175565b6104ff565b610175565b9050919050565b6000819050919050565b61053e83610509565b61055261054a8261052b565b8484546104ad565b825550505050565b600090565b61056761055a565b610572818484610535565b505050565b5b818110156105965761058b60008261055f565b600181019050610578565b5050565b601f8211156105db576105ac8161047b565b6105b584610490565b810160208510156105c4578190505b6105d86105d085610490565b830182610577565b50505b505050565b600082821c905092915050565b60006105fe600019846008026105e0565b1980831691505092915050565b600061061783836105ed565b9150826002028217905092915050565b610630826101d8565b67ffffffffffffffff81111561064957610648610294565b5b610653825461044a565b61065e82828561059a565b600060209050601f831160018114610691576000841561067f578287015190505b610689858261060b565b8655506106f1565b601f19841661069f8661047b565b60005b828110156106c7578489015182556001820191506020850194506020810190506106a2565b868310156106e457848901516106e0601f8916826105ed565b8355505b6001600288020188555050505b50505050505056fea2646970667358221220ebadd2188a1a20079351a56233c86660628ee9264daa8340a63d6f3b718c00c864736f6c63430008110033",
  "immutableReferences": {},
  "source": "pragma solidity ^0.8.17;\r\n\r\ncontract HashStorage {\r\n\r\n    struct HashStruct {\r\n        string hash;\r\n    }\r\n\r\n    mapping(uint => HashStruct) hashStructs;\r\n\r\n    function insertHash(uint id, string memory hash) public {\r\n        HashStruct storage key = hashStructs[id];\r\n        key.hash = hash;\r\n    }\r\n\r\n    function getHash(uint id) public view returns (string memory) {\r\n        HashStruct storage key = hashStructs[id];\r\n        return (key.hash);\r\n    }\r\n}",
  "sourcePath": "C:\\Users\\chekm\\Documents\\HashStorage\\contracts\\HashStorage.sol",
  "compiler": {
    "name": "solc",
    "version": "0.8.17+commit.8df45f5f.Emscripten.clang"
  },
  "schemaVersion": "3.4.11",
  "updatedAt": "2023-04-02T15:01:40.314Z",
  "networkType": "ethereum",
  "devdoc": {
    "kind": "dev",
    "methods": {},
    "version": 1
  },
  "userdoc": {
    "kind": "user",
    "methods": {},
    "version": 1
  }
}